:0300000002018B6F
:0C018B00787FE4F6D8FD75814B0201D2AC
:10000E001205E81206888F287E00EF6401700CE559
:10001E002770047D0180027D008D27EF64024E70F3
:10002E0006F525F524F526E52864037033E525FD50
:10003E007C00E4FF12052C7F057E00120615E524D8
:10004E00FD7C007F0112052C7F057E00120615E552
:10005E0026FD7C007F0212052C7F057E0012061500
:10006E00E52864047014FF1204B18F257F01120479
:10007E00B18F247F021204B18F26E52575F00A8414
:10008E00FD7C007F0112067FE52575F00A84E5F000
:10009E00FD7C007F0212067F7D0B7C007F03120623
:1000AE007FE52475F00A84FD7C007F0412067FE54F
:1000BE002475F00A84E5F0FD7C007F0512067F7D35
:1000CE000B7C007F0612067FE52675F00A84FD7C08
:1000DE00007F0712067FE52675F00A84E5F0FD7CA9
:0900EE00007F0812067F020011D8
:10041B00E527602E0526C3E52694647480948040FE
:10042B0021E4F5260524E524943C74809480401245
:10043B00E4F5240525E525943C748094804003E481
:03044B00F5242273
:03000B00020217D7
:10021700C0E0C0F0C083C082C0D075D000C000C0AD
:0D02270001C002C003C004C005C006C0072E
:10023400758A66758CFC051FE51F7002051EC39444
:1002440014E51E94004009751E00751F0012039EDC
:100254000521E52170020520C39402E520940040A5
:10026400097520007521001205730523E52370022A
:100274000522C3940AE522940040097522007523DF
:040284000012041B45
:10028800D007D006D005D004D003D002D001D000CA
:0B029800D0D0D082D083D0F0D0E03274
:10061500EF4E600F7D027CEFDCFEDDFCEF1F70F01E
:030625001E80ED47
:0106280022AF
:06063D00C2A58F80D2A7C8
:080643007F027EEFDEFEDFFC0A
:01064B00228C
:0A065800C2A612063DC2A702064327
:10059200CFCDCFCECCCE1201367C007D0A120136F1
:0405A200ED2430FF15
:0A05A600D2A612063DC2A7020643CA
:1005B000AE07EEFB7A0064017004ED148009EB6471
:0E05C000024A7009ED243F4480FF12065822C3
:100629007F381206587F0C1206587F061206587F2B
:04063900010206585C
:0A066200AC031205B0AF040205A6B8
:060550008B438A4489453B
:100556001205B0E4FDAB43AA44A9458D827583001C
:0C0566001200F7FF60061205A60D80E9E8
:010572002266
:0A048000EF24FFFDEE34FFFC7F0ABD
:08048A008E3F8F408C418D4232
:100492007F017E00E4FBEBC39542E5416480F87482
:0E04A2008098500AAC3FAD401201240B80E858
:0104B0002229
:040508008A328B3375
:10050C001205B0AA34EAFF7E00D394007480948064
:0F051C00400D120480AC32AD331205921A80E606
:01052B0022AD
:040354008B828A838B
:100358001205B0C3E58364809480400D7F2B12059D
:10036800A685832E85822F80107F2D1205A6C3E4D3
:100378009582F52FE49583F52EAA2DEAFF7E00D30A
:10038800940074809480400D120480AC2EAD2F121E
:0503980005921A80E649
:01039D00223D
:040309008A378B386C
:10030D001205B0AA39EAD39400748094804037EA7C
:10031D0024FFFDE434FFFC7F107E0012048AAC370D
:10032D00AD38CFCDCFCECCCE120136EF540FFEC3AC
:10033D00940A74809480EE5004243080022437FF98
:06034D001205A61A80BF94
:010353002287
:0403DE008A3C8B3D8D
:1003E2001205B0AA3EEAFF7E00D394007480948086
:1003F2004026EF24FFFDEE34FFFC7F0212048AAC9C
:100402003CAD3DCFCDCFCECCCE120136EF54012440
:0804120030FF1205A61A80CD8F
:01041A0022BF
:05068800E4AF48F54855
:01068D00224A
:1005FF00E4FF20B1010F20B0027F0220B2027F037F
:05060F0020B3027F048E
:0106140022C3
:10039E008546471205FF8F46AF477E00EF6401701A
:1003AE0007E5467003754801EF64024E7007E54697
:1003BE007003754802E54764037007E546700375E0
:0F03CE004803E54764047007E54670037548046B
:0103DD0022FD
:10052C008F498C4A8D4B1206767FA012044E120610
:10053C004CAF4912044E12064CAF4B12044E12062D
:04054C004C0200035A
:0204B1008F4971
:1004B3001206767FA012044E12064CAF4912044E68
:1004C30012064C1206767FA112044E12064C120439
:0D04D300E18F4A7F0112066C120003AF4A50
:0104E00022F9
:09067600D2A0D2A1C2A0C2A122AF
:07000300C2A0D2A1D2A0228D
:02044E00AD07F8
:10045000E4FBEBC394087480948050237E00748086
:10046000A803088006CEA2E713CE13D8F8FFEDF557
:0F04700082EF558224FF92A0D2A1C2A10B80D3AC
:01047F00225A
:1004E100E4FFD2A0FEEEC39408748094805017D22A
:1004F100A130A00DA8067480088002C313D8FC4265
:0605010007C2A10E80DF1D
:0105070022D1
:0A066C00EF24FF92A0D2A1C2A12248
:0B064C00D2A0D2A1A2A0E433FFC2A103
:010657002280
:1005CE000909000A0A0A0A0A0A0A0A0C123F065BFD
:0905DE004F666D7D077F6F004040
:09067F00AE0574092FF8A606224D
:1002A300E4F580EF14B4080050549002BB75F003DA
:1002B300A4C58325F0C583730202D30202D70202C9
:1002C300DB0202DF0202E30202EB0202F30202FBA1
:1002D300D2A4800ED2A48012D2A48016D2A4801AF3
:1002E300C2A4D2A3D2A28016C2A4D2A3C2A2800E59
:1002F300C2A4C2A3D2A28006C2A4C2A3C2A2741281
:060303002DF8E6F5802252
:1005730074092508F8E6FD7C00AF081202A30508FC
:0E058300C3E508940974809480400375080154
:010591002247
:1005E8005389F0438901758A66758CFCC28DD28C5B
:0705F800D2A9D2AFC2B92263
:1001970002000EE493A3F8E493A34003F68001F270
:1001A70008DFF48029E493A3F85407240CC8C33369
:1001B700C4540F4420C8834004F456800146F6DF38
:1001C700E4800B01020408102040809005CEE47EF5
:1001D700019360BCA3FF543F30E509541FFEE4932D
:1001E700A360010ECF54C025E060A840B8E493A3F4
:1001F700FAE493A3F8E493A3C8C582C8CAC583CA1F
:10020700F0A3C8C582C8CAC583CADFE9DEE780BED6
:0105E7000013
:1000F700BB010CE58229F582E5833AF583E02250BE
:1001070006E92582F8E622BBFE06E92582F8E22207
:0D011700E58229F582E5833AF583E4932221
:10012400EF8DF0A4A8F0CF8CF0A428CE8DF0A42EEF
:02013400FE22A9
:10013600BC000BBE0029EF8DF084FFADF022E4CCAD
:10014600F875F008EF2FFFEE33FEEC33FCEE9DEC76
:10015600984005FCEE9DFE0FD5F0E9E4CEFD22EDBC
:10016600F8F5F0EE8420D21CFEADF075F008EF2F06
:10017600FFED33FD4007985006D5F0F222C398FDF7
:050186000FD5F0EA2294
:00000001FF
