:030000000202FCFD
:0C02FC00787FE4F6D8FD758130020343E2
:10057B0050617373576F7264004F4B20004552529A
:05058B0000202020000B
:10018C001205A47BFF7A05797B7D017F0112051C8A
:10019C001200038F26E52660F7D3940A74809480AE
:1001AC005041C3E5239404E52294005028AE24AFBB
:1001BC00257C007D0A1202958E248F25E52675F08C
:1001CC000A84E5F02525F525E43524F5240523E5F9
:1001DC002370020522751604AB25AA247D017F022B
:1001EC001204F8E526640B7044E52564297004E5D7
:1001FC002464097BFF70147A0579847D0E7F0112CB
:10020C00051C7FC87E00120590800B7A0579887DCD
:10021C000E7F0112051CE4F524F525F522F5237556
:10022C001604AB25AA247D017F021204F8E526648E
:10023C000C600302019CF524F525F522F5237BFFC8
:10024C007A05798C7D0E7F0112051C751604AB2581
:0C025C00AA247D017F021204F802019C1C
:10059000EF4E600F7D027CEFDCFEDDFCEF1F70F0A4
:0305A0001E80EDCD
:0105A3002235
:0C05C7000A083F065B4F666D7D077F6FE2
:10038800EF14B40800505490039D75F003A4C5837E
:1003980025F0C583730203B50203B90203BD020346
:1003A800C10203C50203CD0203D50203DDD2A48036
:1003B8000ED2A48012D2A48016D2A4801AC2A4D2CB
:1003C800A3D2A28016C2A4D2A3C2A2800EC2A4C283
:1003D800A3D2A28006C2A4C2A3C2A274082DF8E6C2
:0D03E800F5807F017E00120590E4F5802273
:0605B800C2A58F80D2A74E
:0805BE007F027EEFDEFEDFFC90
:0105C6002212
:0A05D400C2A61205B8C2A70205BEB8
:10053F00CFCDCFCECCCE1202A77C007D0A1202A760
:04054F00ED2430FF68
:0A055300D2A61205B8C2A70205BE29
:10055D00AE07EEFB7A0064017004ED148009EB64C4
:0E056D00024A7009ED243F4480FF1205D4229B
:1005A4007F381205D47F0C1205D47F061205D47F40
:0405B400010205D467
:0A05DE00AC0312055DAF04020553E3
:06051C008B128A13891402
:1005220012055DE4FDAB12AA13A9148D8275830036
:0C053200120268FF60061205530D80E9FC
:01053E00229A
:0A04C700EF24FFFDEE34FFFC7F0A76
:0804D1008E178F188C198D1A8B
:1004D9007F017E00E4FBEBC3951AE5196480F8748B
:0E04E9008098500AAC17AD181202950B80E8EF
:0104F70022E2
:0404F8008A148B15C2
:1004FC0012055DAA16EAFF7E00D3940074809480E6
:0F050C00400D1204C7AC14AD1512053F1A80E65E
:01051B0022BD
:040440008B828A839E
:1004440012055DC3E58364809480400D7F2B120503
:100454005385832085822180107F2D120553C3E4A8
:100464009582F521E49583F520AA1FEAFF7E00D347
:10047400940074809480400D1204C7AC20AD211206
:05048400053F1A80E6AF
:010489002250
:0403F5008A298B2A9C
:1003F90012055DAA2BEAD39400748094804037EAF1
:1004090024FFFDE434FFFC7F107E001204D1AC29E7
:10041900AD2ACFCDCFCECCCE1202A7EF540FFEC35B
:10042900940A74809480EE5004243080022437FFAB
:060439001205531A80BFFA
:01043F00229A
:04048A008A2E8B2FFC
:10048E0012055DAA30EAFF7E00D39400748094803A
:10049E004026EF24FFFDEE34FFFC7F021204D1ACA8
:1004AE002EAD2FCFCDCFCECCCE1202A7EF5401243E
:0804BE0030FF1205531A80CD36
:0104C6002213
:10000300E4F5127590FFC2932097137F14FE120537
:10001300903097FD7F147E00120590751201209693
:10002300147F147E001205903097FD7F147E00121A
:1000330005907512052095147F147E0012059030EB
:1000430097FD7F147E001205907512092094147F8A
:10005300147E001205903097FD7F147E00120590E8
:1000630075120D7590FFC2922097147F147E0012B3
:1000730005903097FD7F147E0012059075120220C3
:1000830096147F147E001205903097FD7F147E0036
:100093001205907512062095147F147E00120590A8
:1000A3003097FD7F147E0012059075120A20941478
:1000B3007F147E001205903097FD7F147E00120599
:1000C3009075120E7590FFC2912097147F147E00D5
:1000D3001205903097FD7F147E0012059075120370
:1000E3002096147F147E001205903097FD7F147EB6
:1000F300001205907512072095147F147E001205D7
:10010300903097FD7F147E0012059075120B20949A
:10011300147F147E001205903097FD7F147E001229
:10012300059075120F7590FFC2902097147F147E6F
:10013300001205903097FD7F147E00120590751212
:10014300042096147F147E001205903097FD7F14CF
:100153007E001205907512082095147F147E0012FC
:1001630005903097FD7F147E0012059075120C20C8
:1001730094147F147E001205903097FD7F147E0047
:08018300120590751210AF1275
:01018B002251
:1003080002018CE493A3F8E493A34003F68001F27E
:1003180008DFF48029E493A3F85407240CC8C333F6
:10032800C4540F4420C8834004F456800146F6DFC5
:10033800E4800B01020408102040809005C7E47E89
:10034800019360BCA3FF543F30E509541FFEE493BA
:10035800A360010ECF54C025E060A840B8E493A381
:10036800FAE493A3F8E493A3C8C582C8CAC583CAAC
:10037800F0A3C8C582C8CAC583CADFE9DEE780BE64
:0105D3000027
:10026800BB010CE58229F582E5833AF583E022504B
:1002780006E92582F8E622BBFE06E92582F8E22295
:0D028800E58229F582E5833AF583E49322AF
:10029500EF8DF0A4A8F0CF8CF0A428CE8DF0A42E7D
:0202A500FE2237
:1002A700BC000BBE0029EF8DF084FFADF022E4CC3B
:1002B700F875F008EF2FFFEE33FEEC33FCEE9DEC04
:1002C700984005FCEE9DFE0FD5F0E9E4CEFD22ED4A
:1002D700F8F5F0EE8420D21CFEADF075F008EF2F94
:1002E700FFED33FD4007985006D5F0F222C398FD85
:0502F7000FD5F0EA2222
:00000001FF
