:030000000202D821
:0C02D800787FE4F6D8FD758112020097D3
:1002890048656C6C6F0057656C636F6D6520546FC2
:08029900204368696E61210039
:100097001202A17B437D017F011202EE7BFF7A02F0
:1000A70079897D037F0112022A750C027B427A004F
:1000B7007D097F01120206750C027BA87AFF7D0C71
:1000C7007F0112014E750C027BA57A007D017F022C
:1000D700120103750C087BA57A007D047F021201CB
:1000E700987BFF7A02798F7D107F0112022A7F1891
:0C00F7001202E47FF47E011202B580F2D8
:0602C900C2A58F80D2A740
:0802CF007F027EC7DEFEDFFCAA
:0102D7002204
:0A02E400C2A61202C9C2A70202CF8F
:10024D00CFCDCFCECCCE1200427C007D0A12004223
:04025D00ED2430FF5D
:0A026100D2A61202C9C2A70202CF02
:1002A1007F381202E47F0C1202E47F061202E47F1F
:0402B100010202E460
:10026B00AE07EEFB7A0064017004ED148009EB64B9
:0E027B00024A7009ED243F4480FF1202E42283
:0A02EE00AC0312026BAF04020261C0
:06022A008B088A09890A15
:1002300012026BE4FDAB08AA09A90A8D827583003E
:0C024000120003FF60061202610D80E94D
:01024C00228F
:0A01D500EF24FFFDEE34FFFC7F0A6B
:0801DF008E0F8F108C118D12A0
:1001E7007F017E00E4FBEBC39512E5116480F87490
:0E01F7008098500AAC0FAD101200300B80E85B
:0102050022D6
:040206008A0A8B0BCA
:10020A0012026BAA0CEAFF7E00D3940074809480D9
:0F021A00400D1201D5AC0AAD0B12024D1A80E651
:0102290022B2
:04014E008B828A8393
:1001520012026BC3E58364809480400D7F2B1202F0
:100162006185830D85820E80107F2D120261C3E4AA
:100172009582F50EE49583F50DAA0CEAFF7E00D375
:10018200940074809480400D1201D5AC0DAD0E1216
:05019200024D1A80E699
:010197002245
:040103008A0A8B0BCE
:1001070012026BAA0CEAD39400748094804037EAF9
:1001170024FFFDE434FFFC7F107E001201DFAC0AF0
:10012700AD0BCFCDCFCECCCE120042EF540FFEC3D6
:10013700940A74809480EE5004243080022437FFA0
:060147001202611A80BFE4
:01014D00228F
:040198008A0A8B0B39
:10019C0012026BAA0CEAFF7E00D394007480948048
:1001AC004026EF24FFFDEE34FFFC7F021201DFAC92
:1001BC000AAD0BCFCDCFCECCCE120042EF540124E2
:0801CC0030FF1202611A80CD20
:0101D4002208
:1002B500EF4E600F7D027CEFDCFEDDFCEF1F70F082
:0302C5001E80EDAB
:0102C8002213
:10000300BB010CE58229F582E5833AF583E02250B2
:1000130006E92582F8E622BBFE06E92582F8E222FC
:0D002300E58229F582E5833AF583E4932216
:10003000EF8DF0A4A8F0CF8CF0A428CE8DF0A42EE4
:02004000FE229E
:10004200BC000BBE0029EF8DF084FFADF022E4CCA2
:10005200F875F008EF2FFFEE33FEEC33FCEE9DEC6B
:10006200984005FCEE9DFE0FD5F0E9E4CEFD22EDB1
:10007200F8F5F0EE8420D21CFEADF075F008EF2FFB
:10008200FFED33FD4007985006D5F0F222C398FDEC
:050092000FD5F0EA2289
:00000001FF
