:0300000002000EED
:0C000E00787FE4F6D8FD758115020055DE
:100168001201CAE4F514C3E51494647480948050B1
:100178000E8514127F0A7E001201E1051480E775CE
:100188001464C37480948050DA8514127F0A7E0048
:070198001201E1151480EBD8
:03000B0002019F50
:10019F00C0E0C0F0C0D0758AA4758CFF0513E513BD
:1001AF0075F0648485F013E513C395125004D2A142
:0B01BF008002C2A1D0D0D0F0D0E0320E
:1001E100EF4E600F7D027CEFDCFEDDFCEF1F70F057
:0301F1001E80ED80
:0101F40022E8
:1001CA005389F0438901758AA4758CFFC28DD28C3C
:0701DA00D2A9D2AFC2B92285
:10010700E4F51520B1137F14FE1201E130B1FD7F34
:10011700147E001201E175150120B0147F147E00D2
:100127001201E130B0FD7F147E001201E175150266
:1001370020B2147F147E001201E130B2FD7F147EDD
:10014700001201E175150320B3147F147E0012011C
:10015700E130B3FD7F147E001201E1751504AF1580
:010167002275
:0C01F5000A083F065B4F666D7D077F6FB8
:10009A00EF14B4080050549000AF75F003A4C58360
:1000AA0025F0C583730200C70200CB0200CF02000D
:1000BA00D30200D70200DF0200E70200EFD2A480D9
:1000CA000ED2A48012D2A48016D2A4801AC2A4D2BC
:1000DA00A3D2A28016C2A4D2A3C2A2800EC2A4C274
:1000EA00A3D2A28006C2A4C2A3C2A274082DF8E6B3
:0D00FA00F5807F017E001201E1E4F5802217
:10001A00020168E493A3F8E493A34003F68001F293
:10002A0008DFF48029E493A3F85407240CC8C333E7
:10003A00C4540F4420C8834004F456800146F6DFB6
:10004A00E4800B01020408102040809001F5E47E50
:10005A00019360BCA3FF543F30E509541FFEE493AB
:10006A00A360010ECF54C025E060A840B8E493A372
:10007A00FAE493A3F8E493A3C8C582C8CAC583CA9D
:10008A00F0A3C8C582C8CAC583CADFE9DEE780BE55
:0102010000FC
:00000001FF
