:030000000206965F
:0C069600787FE4F6D8FD75812E0206DDA9
:100B5B0020200020202D20202D20200020203A2096
:050B6B00203A202000EB
:10079000120609E518FB3395E0FA750C027D017F1E
:1007A00001120A84E519FB3395E0FA750C027D0409
:1007B0007F01120A84E51AFB3395E0FA750C027D7D
:1007C000077F01120A84E51BFB3395E0FA750C02E2
:1007D0007D017F02120A84E51CFB3395E0FA750C5B
:1007E000027D047F02120A84E51DFB3395E0FA7551
:0907F0000C027D077F02020A845D
:10000E00AF247E00EF6402700B0521E52175F0062A
:10001E008485F021EF64034E6003020159741825A4
:10002E0021F806AF18EF3395E0FED3EF9463EE643C
:10003E008094804003E4F518AF19EF3395E0FED3BA
:10004E00EF940CEE648094804003751901AF19EFA4
:10005E003395E0FEEF64014E6024EF64034E601EA4
:10006E00EF64054E6018EF64074E6012EF64084EA1
:10007E00600CEF640A4E6006EF640C4E7014AF1AFB
:10008E00EF3395E0FED3EF941FEE64809480407CB6
:10009E008077AF19EF3395E0FEEF64044E6012EFF8
:1000AE0064064E600CEF64094E6006EF640B4E70F2
:1000BE0014AF1AEF3395E0FED3EF941EEE648094E6
:1000CE008040498044AF19EF3395E0FEEF64024E55
:1000DE00703AE51875F004120553AFF0EF3395E062
:1000EE004F7014AF1AEF3395E0FED3EF941DEE640C
:1000FE0080948040178012AF1AEF3395E0FED3EF55
:10010E00941CEE648094804003751A01AF1BEF338C
:10011E0095E0FED3EF9417EE648094804003E4F5EF
:10012E001BAF1CEF3395E0FED3EF943BEE6480944F
:10013E00804003E4F51CAF1DEF3395E0FED3EF9442
:10014E003BEE648094804003E4F51DE52464046076
:10015E00030202D474182521F816AF18EF3395E078
:10016E00C3648094805003751863AF19EF3395E024
:10017E00FEC3EF9401EE64809480500375190CAFAA
:10018E0019EF3395E0FEEF64014E6024EF64034EE9
:10019E00601EEF64054E6018EF64074E6012EF6448
:1001AE00084E600CEF640A4E6006EF640C4E702D24
:1001BE00AF1AEF3395E0FEC3EF9401EE64809480A6
:1001CE005003751A1FAF1AEF3395E0FED3EF941F4D
:1001DE00EE6480948050030202A40202A1AF19EFD4
:1001EE003395E0FEEF64044E6012EF64064E600C31
:1001FE00EF64094E6006EF640B4E7029AF1AEF33B1
:10020E0095E0FEC3EF9401EE648094805003751A5E
:10021E001EAF1AEF3395E0FED3EF941EEE6480947A
:10022E00804073806EAF19EF3395E0FEEF64024E9F
:10023E007064E51875F004120553AFF0EF3395E0D6
:10024E004F7029AF1AEF3395E0FEC3EF9401EE64C1
:10025E008094805003751A1DAF1AEF3395E0FED3CC
:10026E00EF941DEE64809480402C8027AF1AEF33FC
:10027E0095E0FEC3EF9401EE648094805003751AEE
:10028E001CAF1AEF3395E0FED3EF941CEE6480940E
:10029E00804003751A01AF1BEF3395E0C364809461
:1002AE00805003751B17AF1CEF3395E0C364809429
:1002BE00805003751C3BAF1DEF3395E0C3648094F3
:1002CE00805003751D3BE5217015E5236401700F09
:1002DE007BFF7A0B795B7D017F01120AA88011E505
:1002EE0018FB3395E0FA750C027D017F01120A842A
:1002FE00E52164017015E5236401700F7BFF7A0B15
:10030E00795B7D047F01120AA88011E519FB3395F4
:10031E00E0FA750C027D047F01120A84E521640265
:10032E007015E5236401700F7BFF7A0B795B7D07F7
:10033E007F01120AA88011E51AFB3395E0FA750CBD
:10034E00027D077F01120A84E52164037015E523FF
:10035E006401700F7BFF7A0B795B7D017F02120ABD
:10036E00A88011E51BFB3395E0FA750C027D017F29
:10037E0002120A84E52164047015E5236401700FEE
:10038E007BFF7A0B795B7D047F02120AA88011E550
:10039E001CFB3395E0FA750C027D047F02120A8471
:1003AE00E52164057013E5236401700D7BFF7A0B64
:1003BE00795B7D077F02020AA8E51DFB3395E0FA03
:0B03CE00750C027D077F02120A8422DA
:1008BA00120B84120BCA120B447BFF7A0B795E7DF2
:1008CA00017F01120AA87BFF7A0B79677D017F02FB
:1008DA00120AA81203D91207F98F24EF64017016BD
:1008EA00AF22FEEF7005752201800BEF64014E7096
:1008FA0005F5221203D9E5221460080470D81207FC
:08090A009080D312000E80CE94
:03000B000209E403
:0909E400C0E0C0D075D000C007CE
:1009ED00758A66758CFC0520E5207002051FC39481
:1009FD00F4E51F94014012751F00752000E523706A
:090A0D00047F0180027F008F23A9
:070A1600D007D0D0D0E03280
:100B7000EF4E600F7D027CEFDCFEDDFCEF1F70F0BE
:030B80001E80EDE7
:010B8300224F
:100B290075985043878053890F438920758BF475D5
:0B0B39008DF4C2ABD28ED2AFD2AC2242
:080003008F993099FDC299228A
:020A1D00AD0723
:100A1F00E4FBEBC394087480948050237E007480B1
:100A2F00A803088006CEA2E713CE13D8F8FFEDF582
:100A3F0082EF558224FF92B4D2B6C2B60B80D3D2C6
:030A4F00B5C2B578
:010A52002281
:050BC500C2B6C2B5221A
:100ACB00AA07AF05120A1DAF02A80774800880029F
:100ADB00C313D8FCF4F5807F017E00120B70758078
:020AEB00FF22E8
:060B9800C2A58F80D2A768
:080B9E007F027EEFDEFEDFFCAA
:010BA600222C
:0A0BA700C2A6120B98C2A7020B9E13
:100AED00CFCDCFCECCCE1205B47C007D0A1205B48D
:040AFD00ED2430FFB5
:0A0B0100D2A6120B98C2A7020B9EA9
:100B0B00AE07EEFB7A0064017004ED148009EB6410
:0E0B1B00024A7009ED243F4480FF120BA7220E
:100B84007F38120BA77F0C120BA77F06120BA77FCF
:040B940001020BA7A8
:0A0BB100AC03120B0BAF04020B01A2
:060AA8008B088A09890A8F
:100AAE00120B0BE4FDAB08AA09A90A8D827583000F
:0C0ABE00120575FF6006120B010D80E9A7
:010ACA002209
:0A0A5300EF24FFFDEE34FFFC7F0AE4
:080A5D008E0D8F0E8C0F8D1021
:100A65007F017E00E4FBEBC39510E50F6480F8740D
:0E0A75008098500AAC0DAD0E1205A20B80E861
:010A83002250
:040A84008A0A8B0B44
:100A8800120B0BAA0CEAFF7E00D3940074809480AA
:0F0A9800400D120A53AC0AAD0B120AED1A80E69C
:010AA700222C
:04095D008B828A837C
:10096100120B0BC3E58364809480400D7F2B120B27
:100971000185831685821780107F2D120B01C3E438
:100981009582F517E49583F516AA15EAFF7E00D343
:10099100940074809480400D120A53AC16AD171266
:0509A1000AED1A80E6DA
:0109A600222E
:040912008A278B287D
:10091600120B0BAA29EAD39400748094804037EA1C
:1009260024FFFDE434FFFC7F107E00120A5DAC2735
:10093600AD28CFCDCFCECCCE1205B4EF540FFEC32B
:10094600940A74809480EE5004243080022437FF89
:06095600120B011A80BF24
:01095C002278
:0409A7008A2C8B2DDE
:1009AB00120B0BAA2EEAFF7E00D394007480948066
:1009BB004026EF24FFFDEE34FFFC7F02120A5DACF4
:1009CB002CAD2DCFCDCFCECCCE1205B4EF54012410
:0809DB0030FF120B011A80CD60
:0109E30022F1
:090BBB00071817011C17090006B8
:050BCA00C2B5C2B62215
:050722002DFDEE3CFC82
:060727008C088D09AB07F0
:10072D00D2B5E4FDEDC394087480948050227E0010
:10073D007401A805088005C333CE33CED8F9FFEB7D
:10074D00F582EF558224FF92B4D2B6C2B60D80D495
:10075D00E4FDEDC394087480948050247E007401F0
:10076D00A805088005C333CE33CED8F9FFE5085E62
:10077D00FEE5095F4E24FF92B4D2B6C2B60D80D20B
:02078D00C2B5F3
:01078F002247
:02085A00AD07E8
:10085C00E4F9430501D2B5FBEBC394087480948092
:10086C0050227E007401A803088005C333CE33CE1A
:10087C00D8F9FFEDF582EF558224FF92B4C2B6D2BF
:10088C00B60B80D4E4FBEBC39408748094805017AF
:10089C00D2B6C2B630B40DA8037401088002C333BB
:0D08AC00D8FC42010B80DFC2B5C2B4AF0121
:0108B900221C
:1003D900E4FDFC7F8E120727E51875F00A12055314
:1003E900FF3395E0FEEFC4F8540FC868FFEEC4541C
:1003F900F048FEE51875F00A120553ADF0ED339596
:10040900E0FCEF7F8C120722E51975F00A120553FB
:10041900FF3395E0FEEFC4F8540FC868FFEEC454EB
:10042900F048FEE51975F00A120553ADF0ED339564
:10043900E0FCEF7F88120722E51A75F00A120553CE
:10044900FF3395E0FEEFC4F8540FC868FFEEC454BB
:10045900F048FEE51A75F00A120553ADF0ED339533
:10046900E0FCEF2DFDEE3CFC7F86120727E51B75AE
:10047900F00A120553FF3395E0FEEFC4F8540FC894
:1004890068FFEEC454F048FEE51B75F00A120553E7
:10049900ADF0ED3395E0FCEF2DFDEE3CFC7F8412D1
:1004A9000727E51C75F00A120553FF3395E0FEEFA7
:1004B900C4F8540FC868FFEEC454F048FEE51C7533
:1004C900F00A120553ADF0ED3395E0FCEF2DFDEE8A
:1004D9003CFC7F82120727E51D75F00A120553FFC0
:1004E9003395E0FEEFC4F8540FC868FFEEC454F02A
:1004F90048FEE51D75F00A120553ADF0ED3395E0A0
:10050900FCEF2DFDEE3CFC7F80120727E51E75F000
:100519000A120553FF3395E0FEEFC4F8540FC8687B
:10052900FFEEC454F048FEE51E75F00A120553ADFE
:10053900F0ED3395E0FCEF2DFDEE3CFC7F8A1207D0
:0A054900277D807C007F8E020727CB
:100609007F8C12085AEFC4540F75F00AA4FEEF54F8
:100619000F2EF5187F8812085AEFC4540F75F00A87
:10062900A4FEEF540F2EF5197F8612085AEFC45411
:100639000F75F00AA4FEEF540F2EF51A7F841208E5
:100649005AEFC4540F75F00AA4FEEF540F2EF51B90
:100659007F8212085AEFC4540F75F00AA4FEEF54B2
:100669000F2EF51C7F8012085AEFC4540F75F00A3B
:10067900A4FEEF540F2EF51D7F8A12085AEFC454B9
:0C0689000F75F00AA4FEEF540F2EF51EB2
:010695002242
:1007F900E4F50820B1137F14FE120B7030B1FD7FB0
:10080900147E00120B7075080120B0147F147E004D
:10081900120B7030B0FD7F147E00120B7075080248
:1008290020B2147F147E00120B7030B2FD7F147E4B
:1008390000120B7075080320B3147F147E00120B8D
:100849007030B3FD7F147E00120B70750804AF0879
:01085900227C
:100B44005389F0438901758A66758CFCC28DD28CF9
:070B5400D2A9D2AFC2B92201
:1006A2000208BAE493A3F8E493A34003F68001F2AC
:1006B20008DFF48029E493A3F85407240CC8C33359
:1006C200C4540F4420C8834004F456800146F6DF28
:1006D200E4800B0102040810204080900BBBE47EF2
:1006E200019360BCA3FF543F30E509541FFEE4931D
:1006F200A360010ECF54C025E060A840B8E493A3E4
:10070200FAE493A3F8E493A3C8C582C8CAC583CA0E
:10071200F0A3C8C582C8CAC583CADFE9DEE780BEC6
:010BC4000030
:10055300C2D530F707B2D563F0FF05F030E70CB230
:10056300D5F4048463F0FF05F080018430D502F4F0
:02057300042260
:10057500BB010CE58229F582E5833AF583E022503B
:1005850006E92582F8E622BBFE06E92582F8E22285
:0D059500E58229F582E5833AF583E493229F
:1005A200EF8DF0A4A8F0CF8CF0A428CE8DF0A42E6D
:0205B200FE2227
:1005B400BC000BBE0029EF8DF084FFADF022E4CC2B
:1005C400F875F008EF2FFFEE33FEEC33FCEE9DECF4
:1005D400984005FCEE9DFE0FD5F0E9E4CEFD22ED3A
:1005E400F8F5F0EE8420D21CFEADF075F008EF2F84
:1005F400FFED33FD4007985006D5F0F222C398FD75
:050604000FD5F0EA2211
:00000001FF
