:03000000020344B4
:0C034400787FE4F6D8FD758123020129C2
:0B03500041444A204E54432052470015
:100129001203217BFF7A0379507D017F011202AE10
:100139007F9C1200978E228F23750C03AB23AA2272
:100149007D017F0212028A7FDC1200978E228F23A3
:10015900750C03AB23AA227D057F0212028A7FACAC
:100169001200978E228F23750C03AB23AA227D09D7
:0E0179007F0212028A7F0A7E0012030D80B2FE
:10030D00EF4E600F7D027CEFDCFEDDFCEF1F70F029
:03031D001E80ED52
:0103200022BA
:06033500C2A58F80D2A7D3
:08033B007F027EEFDEFEDFFC15
:010343002297
:0A035B00C2A6120335C2A702033B3D
:1002D100CFCDCFCECCCE1200427C007D0A1200429F
:0402E100ED2430FFD9
:0A02E500D2A6120335C2A702033BA4
:1002EF00AE07EEFB7A0064017004ED148009EB6435
:0E02FF00024A7009ED243F4480FF12035B2287
:100321007F3812035B7F0C12035B7F0612035B7F36
:040331000102035B67
:0A036500AC031202EFAF040202E540
:0602AE008B088A09890A91
:1002B4001202EFE4FDAB08AA09A90A8D8275830036
:0C02C400120003FF60061202E50D80E945
:0102D000220B
:0A025900EF24FFFDEE34FFFC7F0AE6
:080263008E0D8F0E8C0F8D1023
:10026B007F017E00E4FBEBC39510E50F6480F8740F
:0E027B008098500AAC0DAD0E1200300B80E8DA
:010289002252
:04028A008A0A8B0B46
:10028E001202EFAA0CEAFF7E00D3940074809480D1
:0F029E00400D120259AC0AAD0B1202D11A80E6C4
:0102AD00222E
:0401D2008B828A830F
:1001D6001202EFC3E58364809480400D7F2B1202E8
:1001E600E585831685821780107F2D1202E5C3E40C
:1001F6009582F517E49583F516AA15EAFF7E00D3D6
:10020600940074809480400D120259AC16AD1712FA
:0502160002D11A80E690
:01021B0022C0
:040187008A1A8B1B2A
:10018B001202EFAA1CEAD39400748094804037EAE1
:10019B0024FFFDE434FFFC7F107E00120263AC1AD7
:1001AB00AD1BCFCDCFCECCCE120042EF540FFEC342
:1001BB00940A74809480EE5004243080022437FF1C
:0601CB001202E51A80BFDC
:0101D100220B
:04021C008A1F8B208A
:100220001202EFAA21EAFF7E00D39400748094802A
:100230004026EF24FFFDEE34FFFC7F02120263AC88
:100240001FAD20CFCDCFCECCCE120042EF54012433
:0802500030FF1202E51A80CD17
:010258002283
:020097008F08D0
:10009900E4F50AF50BC2B6C2B5F509C3E50994083A
:1000A9007480948050287E007480A809088006CE48
:1000B900A2E713CE13D8F8FFEF550824FF92B4D264
:1000C900B67F017E0012030DC2B6050980CDE4F5A5
:1000D90009C3E5099410748094805026D2B67F0133
:1000E9007E0012030DC2B630B7147E80E4A8090859
:1000F9008005CEC313CE13D8F9420BEE420A050987
:1001090080CFD2B5E50830E306E50AFF7E0022E597
:0F0119000AC4F854F0C868FEE50BC4540F48FF41
:0101280022B4
:10000300BB010CE58229F582E5833AF583E02250B2
:1000130006E92582F8E622BBFE06E92582F8E222FC
:0D002300E58229F582E5833AF583E4932216
:10003000EF8DF0A4A8F0CF8CF0A428CE8DF0A42EE4
:02004000FE229E
:10004200BC000BBE0029EF8DF084FFADF022E4CCA2
:10005200F875F008EF2FFFEE33FEEC33FCEE9DEC6B
:10006200984005FCEE9DFE0FD5F0E9E4CEFD22EDB1
:10007200F8F5F0EE8420D21CFEADF075F008EF2FFB
:10008200FFED33FD4007985006D5F0F222C398FDEC
:050092000FD5F0EA2289
:00000001FF
