:030000000200FFFC
:0C00FF00787FE4F6D8FD758161020146AF
:10000E00000400040004160218021906180219044E
:10001E001D04180C110211021606140216041904FE
:10002E00140C110412061102120419041108000214
:10003E0019021902190218061302130418041808DB
:10004E000004160218021906180219041D04180CD1
:10005E00110211021606140216041904140C0F02D2
:10006E00110212041902180419061B021B021D02AA
:10007E00190A190218021602160218041504160C93
:10008E0019021B021D061B021D0420041B0C140268
:10009E0014021906180219041D041D101602180266
:1000AE00190418041B021B021906140A1E041D044F
:1000BE001D0419041D0C1D042208200420041D0219
:1000CE001B021908000219021B0419021B021B0451
:1000DE0020041D0C1D04220820081D021B021908F5
:1000EE00000219021B0419021B061804160C000448
:0100FE00FF02
:10024F00204A0B0000F88CF8F3F95BF9B8FA15FAAD
:10025F0067FAB9FB04FB4BFB90FBCFFC10FC44FC93
:10026F0079FCACFCDCFD09FD34FD5CFD82FDA6FDD7
:10027F00C8FDE8FE06FE22FE3DFE56FE6EFE85FE22
:0D028F009AFEAEFEC1FED3FEE4FEF4FF03B6
:1002DD00120337E50990000E93FFF460208F0A0595
:1002ED0009E5099375F07DA4FFAEF012034E0509E3
:1002FD00C28C7F057E0012034ED28C80D6C28C80BC
:01030D00FEF1
:03000B000202A945
:1002A900C0E0C0D075D000C000C006E50A25E02432
:1002B9000BF8E6FE08E64E6012E50A25E0240BF885
:1002C900E6FE08E6F58AEEF58CB2A5D006D000D098
:0402D900D0D0E0326F
:10034E00EF4E600F7D027CEFDCFEDDFCEF1F70F0E8
:03035E001E80ED11
:010361002279
:1001EE00E4F56120B1137F14FE12034E30B1FD7F92
:1001FE00147E0012034E75610120B0147F147E0030
:10020E0012034E30B0FD7F147E0012034E75610254
:10021E0020B2147F147E0012034E30B2FD7F147E86
:10022E000012034E75610320B3147F147E00120377
:10023E004E30B3FD7F147E0012034E756104AF6124
:01024E00228D
:0C029C000A553F065B4F666D7D077F6FC3
:10018B00EF14B4080050549001A075F003A4C5837C
:10019B0025F0C583730201B80201BC0201C0020144
:1001AB00C40201C80201D00201D80201E0D2A4802E
:1001BB000ED2A48012D2A48016D2A4801AC2A4D2CA
:1001CB00A3D2A28016C2A4D2A3C2A2800EC2A4C282
:1001DB00A3D2A28006C2A4C2A3C2A274552DF8E674
:0301EB00F580227A
:05000300007FE3DFFEB9
:0100080022D5
:10030E00AD07AC06E4F55FF560ED25E0FFEC33FEDE
:10031E00C3E5609FE55F9E500FB2A5120003056016
:09032E00E56070E5055F80E12245
:100337005389F0438901758A66758CFCC28DD28C0E
:07034700D2A9D2AFC2B92216
:10010B000202DDE493A3F8E493A34003F68001F22B
:10011B0008DFF48029E493A3F85407240CC8C333F5
:10012B00C4540F4420C8834004F456800146F6DFC4
:10013B00E4800B010204081020408090024FE47E03
:10014B00019360BCA3FF543F30E509541FFEE493B9
:10015B00A360010ECF54C025E060A840B8E493A380
:10016B00FAE493A3F8E493A3C8C582C8CAC583CAAB
:10017B00F0A3C8C582C8CAC583CADFE9DEE780BE63
:0102A8000055
:00000001FF
